:400000000080002011000000950300009503000008B5044B1A6803F53F5302331A6000F0C1F900BFFA46004010B5054C237833B9044B13B10448AFF300800123237010BD8D
:400040006081FF1F00000000081A0000084B10B51BB108490848AFF300800848036803B910BD074B002BFBD0BDE81040184700BF000000006481FF1F081A0000C880FF1F8E
:400080000000000010B5044600F058FC0028FBD0204600F003FC10BD30B583B0002400948DF804403F238DF8003010E0C4F1040202AB1A440D4BA3FB0013DB0803EB830510
:4000C0006900401A303002F8080C98B2013408B1042CEBD900F032FC0028FBD0C4F10500A1B2684400F0B2FB03B030BDCDCCCCCC08B562B60121002000F0AAFA0348FFF77F
:40010000C1FF4FF6C660FFF7C7FFFEE70C1A0000FEE700BFF0B40022174611E050F82760F3B226F0FF0608E001EB420511F812406D78A5550132013BDBB2002BF4D101370D
:40014000142FEBD9F0BC704708B50A46002101F052FC08BDF8B5194B1B78DBB2184E3478E4B2184F3D78EDB203F00701164A11701B090132137044F00303337045F0030381
:400180003B704FF48142114B1A80802203F2E5731A70012203F5C5731A7004230C4A1370202103321170353213700A2001F03CFB3D7034704422074B1A70F8BDCF010049AE
:4001C000F8460040F94600406E5800401C510040205B00407658004008B501F001FC08BD38B5042227492848FFF7F6FF0622274B1A705222A3F580731A70254B1B78DBB2FB
:40020000244A137040F21472234B1A8041F25122023B1A80002419250CE0204B1B7803F0010343EA440404F003044FF4F07001F06BFB013D0DB1032CEFD115B90320FFF711
:4002400067FF174A4FF48073138007231370002314490B704820023108701370053213700222114B1A7004220A331A700F4A137843F001031370013A137843F08003137062
:4002800038BD00BFFC00004800410040004300400F010049A14600402242004025420040044000400640004001400040A143004038B572B6294C61232370FFF791FF01237D
:4002C0002370274A137843F00403137000240CE0244D630019194A0011462A44084691882858FFF731FF0134E4B2072CF0D91E494FF09040FFF70EFF1C4A137843F0020317
:4003000013701032137843F002031370184C237843F040032370A2F58632513A137843F010031370082213491348FFF755FF0A2212491348FFF750FF082212491248FFF755
:400340004BFF124A137843F008031370FFF702FF0E2221460E48FFF73FFF38BD00480040E84600401C1A00005400004803500140A0430040E000004802510040E800004814
:40038000F0510040F40000481251004022430040B043004008B501F0F7FA03680C2B00D1FEE7FEE708B5104E104D16E029686B68AC68002204E051F8040B43F8040B043265
:4003C000A242F8D1E868002203E0002143F8041B04328242F9D11035013E002EE6D101F0D9FAFFF785FEFEE701000000E41B000008B5104A104B1A60104A136843F40073C6
:40040000136000230AE0032B03D80D4A52F8231000E00C490C4A42F8231001332F2BF2D90A4B1A780A4B1A70074A0A4B1A60FFF73FFF08BD0004FA050CED00E014ED00E072
:4004400000000000950300000080FF1FBC760040C080FF1F08ED00E0F8B501F05DFA0646404A137843F0010313701032137843F00103137001273C4B1F700225943B1D7049
:4004800002F5E2521B32137803F07F031370002001F0CAF9354C237803F0F9032370344A137803F0DF03137023783B432370384601F0BAF9282001F0B7F92E4B1A7802F0BA
:4004C0007F021A701A7802F0BF021A7023782B432370284601F0A8F9237843F0040323700023254A137001321370304601F018FA0721172001F0B6F92049172001F09EF9B3
:400500000721182001F0AEF91D49182001F096F90721152001F0A6F91A49152001F08EF90721284601F09EF91749284601F086F90721032001F096F91449032001F07EF999
:400540000721042001F08EF91149042001F076F907210C2001F086F90E490C2001F06EF9F8BD00BFA54300409D6000409443004012600040F851004084600040BD0E000020
:40058000A50C0000B90E0000190E0000490E00007D0E0000C50E000008B5214B18700023204A1370204A1370204A1370204A1370204A1370204A1370204A1370204B4FF4EA
:4005C00000021A604FF080721A604FF400121A6004221A6008221A6010221A6011B1012906D00BE0174A137803F0FE0313700AE0144A137843F00103137004E0114A1378AE
:4006000043F00103137003220F4B1A708022203B1A70012001F078F904220C4B1A7008BD2F82FF1F2E82FF1FA081FF1FA181FF1FA281FF1F3282FF1FA381FF1F9F81FF1F72
:4006400000E100E009600040286000401260004038B504460D46064B1B7823B9FFF7FCFE0122034B1A7029462046FFF795FF38BD7C81FF1F00230A4A13700A4A13700A4ACD
:4006800013700A4A13700A4A13700A4A13700A4A13700322094B1A708022203B1A7070472E82FF1FA081FF1FA181FF1FA281FF1F3282FF1FA381FF1F9F81FF1F2860004072
:4006C00000EB40008300024A13445878704700BFC081FF1F431EDBB2072B3CD8F0B4074600EB4004A3001C4C2344DB889BB2C3F500739A4208D900EB400293002344DA881D
:4007000092B2C2F5007292B200EB4004A300124C2344DB7843EA1223104D04012E192B55D3B2737039B909E0CE5C3D010C4C665501339BB200E000239A42F5D84200024420
:400740009300054A134400225A705A79D2B20001044B1A54F0BC7047C081FF1FFC5F004078600040FE5F00400246002001E0013080B2135C002BFAD1704700BF10B4FF24BF
:4007800000230EE0094AD25C02EB42029100084A11448A7AD2B2824201D11C4602230133DBB2012BEED9204610BC70478C81FF1FC081FF1F10B5204C2079FFF7DFFF237839
:4007C00013F0800F0ED06378DBB2212B2FD11B4B07221A80C0EBC000194A1044586000F0CFFA10BD144B5B78DBB2202B02D0222B10D01EE0114A07231380C0EBC003104966
:400800000B4453600F4A135C43F00103135400F0DFFA10BD084B9B780B4A22F81030094A135C43F00203135400F068F910BD002010BD002010BD00BF00600040B081FF1F9E
:40084000CC80FF1F9481FF1F9881FF1F70B506460D460F4B1B780F4AD45CE4B204EB440293000D4A13441B899BB28B4209D204EB44029300084A13441D89ADB2002000F03F
:40088000D1FF2A4631462046FFF724FF70BD00BF7D81FF1F8481FF1FC081FF1F2DE9F8438046234B1B78234AD65CF6B2FFF75CFF05460027344606EB460293001E4A134451
:4008C0001B899BB29D4209D906EB460293001A4A1344B3F808901FFA89F900E0A9464A4608EB07013046FFF7F5FEC9EB0505ADB245B906EB460293000F4A13441B899BB2A0
:40090000994510D14F44BFB204EB440293000A4A13445B7813F0FF0FF6D025B9002211463046FFF7D7FE002DC4D1BDE8F88300BF7D81FF1F8481FF1FC081FF1F08B5034BF5
:400940001B78034AD05CFFF7BBFE08BD7D81FF1F8481FF1FC37803F0030390F9020000280FDA032B06D002F001030B48C15442F001020EE0C2F380030848C15442F004028E
:4009800007E0032B05D0C2F340030548C15442F002021046704700BF8481FF1F8C81FF1F8881FF1F1D4B19781D4A13889BB20B449BB2138000220FE01A494B681B78DBB2BE
:4009C000194883544B6801334B600132D2B20B889BB2013B9BB20B80124B1B889BB20BB1072AE9D90D4B1B78DBB2082B00D05AB10E490B7883F080030B700F210C4B1970A5
:400A000002210C4B197004E0022309490B7009490B70094B1A70014B1A7070479F81FF1F2C82FF1FB081FF1F00600040A481FF1F9E81FF1F2E82FF1FBC81FF1F0222074B8D
:400A40001A708022064B1A700F22064B1A700023054A1370054A1370012070472E82FF1FA481FF1F9E81FF1F9F81FF1FBC81FF1F08B5FFF797FF08BD10B4194B197801F025
:400A80000F010239C9B2174A13889BB20B449BB21380002011E0144A5468144B1B5CDBB223705368013353600130C0B20139C9B213889BB2013B9BB213800B4B1B889BB293
:400AC0000BB10029E7D10A4B19700A4A137883F0800313700B22084B1A7010BC704700BF296000402C82FF1FB081FF1F00600040BC81FF1FA481FF1F9E81FF1F0623064AFF
:400B00001370064A13708022054B1A700022054B1A700120704700BF2E82FF1F9E81FF1FA481FF1FBC81FF1F064B9B6843B1054B9A6810709A6804490988518000229A60C0
:400B4000704700BFB081FF1F2C82FF1F08B5134B1A78D2B21A701B78DBB213F0800F02D00F4A137008BD0220FFF7DEFF0D4B1B7803F06003202B05D0402B06D043B900F081
:400B800093FC06E000F0D0FE03E000F037FE00E0002010B90322024B1A7008BD286000409E81FF1F0060004008B5094B1978094A13889BB20B449BB213800022064B1A70C2
:400BC0000120FFF7B1FF0322044B1A7008BD00BF9F81FF1F2C82FF1F2E82FF1F9E81FF1F08B50B4B1B78DBB2042B06D0062B07D0022B0BD1FFF7D8FF08BDFFF73DFF08BDC5
:400C00000320FFF791FF0322024B1A7008BD00BF2E82FF1F9E81FF1F08B50022044B1A700120FFF781FF0322024B1A7008BD00BF2E82FF1F9E81FF1F08B50B4B1B7813F0FD
:400C4000FF0F07D0084A137843F0800307490B70002313700022064B1A700120FFF764FF0322044B1A7008BD3282FF1F086000402E82FF1F9E81FF1F08B5094B1B78DBB29B
:400C8000042B06D0062B07D0022B07D1FFF7F0FE08BDFFF7C1FF08BDFFF7CEFF08BD00BF2E82FF1F08B5284B1B78DBB213F0100F48D013F0800F0CD003F00F03012B16D1D9
:400CC000FFF744FF214B1B7813F0800F11D1012312E013F0400F03D0FFF7CEFF01230BE013F0200F07D0FFF77BFF012304E0002302E0002300E0002323B3134B1B7813F0C5
:400D0000800F1FD1124B1B78124A12781343124A13701278D2B2934214D10C4B1B78DBB2094A127812F0800F07D1084B1B78DBB2054A1370137803F00F03044A1278D2B273
:400D40009342EAD108BD00BF286000409E81FF1FA481FF1FBC81FF1F296000400022064B1A80064B9B682BB1044A916800230B7092685380704700BF2C82FF1FB081FF1F73
:400D800008B50F4B1B889BB213B9FFF757FE15E002220C4B1A7000220B4B1A70FFF7DEFF0A4AD179937943EA0123054A128892B2934201D2024A1380FFF7F4FD012008BDCA
:400DC000B081FF1F2E82FF1FA481FF1F0060004008B504220B4B1A7080220B4B1A70FFF7BDFF0A4AD179937943EA0123084A128892B2934201D2064A13800B22054B1A703F
:400E0000012008BD2E82FF1FA481FF1F00600040B081FF1F9E81FF1F0122094B1A700F3B9B7C084B1B7B03F00303934204D0054AD37B83F08003D3730122024B5A737047D5
:400E40000B600040C081FF1F02220A4B1A700F3B93F82230084B1B7E03F00303012B04D0054AD37E83F08003D3760122024B5A76704700BF0B600040C081FF1F04220C4B3D
:400E80001A700F3B93F832300A4B93F8243003F00303012B06D0074A92F8273083F0800382F827300122034B83F82520704700BF0B600040C081FF1F704700BF08B5FFF76F
:400EC000D9FB08BD08B500F0A5FC08BD70B588B0054603AC174E0FCE0FC43368237035B322232B7003236B7001A800F0D3FC002402231AE008AA224412F81C2C08A901EB31
:400F0000121111F8141CE954581C00212954981C02F00F0208AE324412F8142C2A54DA1CA9540134E4B20433DBB2212BE2D908B070BD00BF4C1A000010B401233EE0194663
:400F40001A010C242148845403EB4300820020480244527912F0FF0F13D003EB430082001B480244127912F0800F04D01801194A024494700AE01801164A024408209070E3
:400F800004E01801134A0244802090704800084482000F480244D488E4B208010B4901448C71D088C0F30720C871D088C0B20871D288C2F307224A710133DBB2082BBED981
:400FC000FF22054B1A7010BC704700BF70600040C081FF1FFC5F00400A600040074B1A78074B03EBC2035B681A7C824204D9C0001030184440687047002070472F82FF1FBC
:40100000601A0000F8B5404B1B7813F0FF0F79D03D4B18780138C0B2FFF7E0FF047AC2683A4B1878C0B200236AE01178884264D13749095CC9B25578A9425ED1917801F014
:401040007F01D67806F00306DFF8C8E04D000D44AF000EEB07054FF0000C85F803C092F802C085F804C092F803C00EF807C097882F8192F90250002D0DDA012E01D10727B1
:4010800000E00D274E000E44B500224E35446F7101266E700CE0012E01D1052700E009274E000E44B5001B4E35446F7100266E70DFF868E00F010EEB07060125B57001FA3A
:4010C00005F529448D00134929440D89C5F307250EF807500D89EDB27570CE88F6B20E4D3D44AE71CE88C6F30726EE71CE88F6B22E71C988C1F30721697108320133DBB20F
:40110000A34292D3F8BD00BFA181FF1FA281FF1FAC81FF1FC081FF1F70600040FC5F0040034B1A78034B03EBC2035868704700BF2F82FF1F601A000008B5084B18780138E2
:40114000C0B2FFF74BFF30B142681279023200EBC203586808BD002008BD00BFA181FF1F2DE9F047002310E0724D5900CA189600AC190022AA55A270E2702281A272627097
:4011800034462C4462710133DBB2082BECD940B90AE000226849CA546849CA540133DBB200E00023012BF4D9654B1B7813F0FF0F00F0BD80624B18780138C0B2FFF70EFFED
:4011C00080464368DB7913F0400F05D05D4A137843F00103137004E05A4A137803F0FE03137098F808704FF0000A01266FE0D8F80C50002467E0AB7803F07F039E425FD187
:40120000314606EB460083004A4803441B899BB2A888834206D206EB460E4FEA8E03454A134418812B784448C35CDBB26878834246D195F802C0DFF8FCE04B000B4498008D
:401240000EEB000383F804C0EB780EF80030EB7803F0030395F90200002813DA012B02D14FF0070901E04FF00D09DFF8C8E04B0003EB010C4FEA8C00704480F805900121A8
:40128000417012E0012B02D14FF0050901E04FF00909DFF8A0E04B0003EB010C4FEA8C00704480F8059000214170AB790A2B01D0022B05D1524631462846FFF74BFB82466A
:4012C00008350134E4B2BC4295D30136F6B2082E8DD9D8F80C0000220CE0837803F07F0310F8084B03EB43039900124B19448C720132D2B2BA42F0D3FFF71EFF124B18606D
:40130000002301210FE00B4D4A00501884002C44E380228992B213449BB203F0010213449BB20131C9B20829EDD9FFF705FEBDE8F08700BFC081FF1FAC81FF1F9C81FF1F8E
:40134000A181FF1FA381FF1FA881FF1F08B5154B1B7903F07F035A1ED2B2072A20D8590019448A0010490A44917841F0010191700021D170517841F002015170127912F088
:40138000800F05D01B01094A1A448D23937004E01B01064A1A4489239370FFF7AFFB08BD002008BD00600040C081FF1FFC5F0040274B1B7903F07F035A1ED2B2072A44D844
:4013C00010B5590019448A0022490A44917801F0FE0191700021D1701F4C1801215C01F07F012154517801F0FD015170127912F0800F13D003EB43018A0016490A44527841
:40140000D2B2012A04D1224602440C23937019E01B01114A1A440D23937013E003EB43018A000C490A445278D2B2012A05D11B01094A1A440823937004E01B01064A1A44FD
:4014400009239370FFF75AFB10BD0020704700BF00600040C081FF1FFC5F004010B50E4B1C79E4B20D4B18780138C0B2FFF7B6FD43681B799C4201D9022C0AD8084A135DA7
:40148000DBB208490B55044B9B78DBB21355012010BD002010BD00BF00600040A181FF1FAC81FF1F9C81FF1F10B59C4B1B78DBB200219B4A118013F0800F00F0AD80974AA4
:4014C0005278D2B20A2A00F27481DFE812F06900720172017201720172010B007201920072019A008D4BDB78DBB2012B09D1FFF717FE42688A4B5A6012221A80FFF740FCF3
:4015000010BD864BDB78DBB2022B13D1834B9878FFF764FD002800F04E814268804B5A605A68D1785A68927842EA01221A80FFF727FC10BD794BDB78DBB2032B05D02CE078
:401540000A7811440133DBB201E000237549734A9278D2B2934203D20A7812F0FF0FEFD16E4B9B7813F0FF0F0BD06C4B9B78DBB26D4A127C934204D16C4C2046FFF7A6FC16
:4015800021460B7813F0FF0F00F017810B78644A13805160FFF7F4FB10BD00F0C5F910BD13F0030317D0022B40F009815C490B805A4B1B7903F07F0303EB43039A005C4BDC
:4015C0001A449278D2B25B4B1A7000225A704B60FFF7D6FB10BD524902230B80564B1A78D2B2544B1A7000225A704B60FFF7C8FB10BD4B4B01221A80504A5A60FFF7C0FB04
:4016000010BD474A01231380444B1B794C490B445360FFF7B5FB10BD404A5278013A0A2A00F2CF80DFE812F04C00CD009800CD000B00CD00CD00CD001300CD003000374B19
:401640009B78DBB23F4A1370FFF758FA10BD334B9B7803F0FF041BB1601EC0B2FFF7BEFC04B110B9002C40F0AE80344B1B78DBB29C4206D0314B1C700120334B1870FFF736
:401680006FFDFFF73BFA10BDFFF7E8FE002800F09C80224A1379DBB21279D2B22B490A702B4AD25CD2B22649CB5CDBB29A4204D00122254B1A70FFF7A5FCFFF71FFA10BDAA
:4016C00003F00303012B17D04BB1022B7FD1134B9B7813F0FF0F7CD1FFF76AFE10BD0F4B9B78DBB2012B76D1134A137803F0FD031370FFF703FA10BD084B1B79DBB2012B40
:401700006BD8064B98781B79DBB21249CA5C22EA0002CA54FFF7F2F910BD00BF00600040B081FF1FC81A0000AC1B00003482FF1FC081FF1F8081FF1FA381FF1FA181FF1F5E
:40174000AC81FF1F3282FF1FA081FF1FA281FF1F9C81FF1F3082FF1F03F00303012B17D04BB1022B3BD1224B9B7813F0FF0F38D1FFF7ECFD10BD1E4B9B78DBB2012B32D102
:401780001C4A137843F002031370FFF7B7F910BD174B1B79DBB2012B27D8154B98781B79DBB21549CA5C22EA0002CA54FFF7A6F910BD002010BD002010BD002010BD0020D2
:4017C00010BD002010BD002010BD002010BD002010BD002010BD002010BD002010BD002010BD002010BD002010BD002010BD00BF00600040A381FF1F3082FF1F044B1B789A
:4018000013F0800F01D0024B5B780020704700BF00600040024B1878C0F38010704700BF8F45004001BE704708B5034B1B7A00FB03F000F069F808BDE880FF1F70B5044636
:401840000E46074B1D681F2802D90020FFF7EAFF04F01F04103455F8240045F8246070BD08ED00E038B504460D46072902D90020FFF7D8FF1F2C02D90020FFF7D3FF04F009
:401880001F0000F1604000F564406D01EDB2057038BD00BF134B1B78DBB20360124A127843EA02230360114A127843EA024303600F4A127843EA026303600E4B1B78DBB222
:4018C00043600D4A127843EA022343600B4A127843EA024343600A4A127843EA02634360704700BF0301004904010049EC46004002010049010100490001004905010049B5
:4019000006010049000000000230800803D000BF01380046FCD17047EFF3108072B6704780F31088704700BF08B5144B1B7803F00303012B02D0022B04D00FE00F4B1B79B2
:40194000DBB20CE00D4B1B7903F07F0303EB43039A000B4B1A44937ADBB200E00023022B07D8084A1268D35C022B04D1FEF722FF08BD002008BD002008BD00BF0060004061
:40198000C081FF1FA881FF1F014B1868704700BF5881FF1F0E4B70B51E460E4C0025E41AA410A54204D056F8253098470135F8E700F006F9084B094C1E46E41AA410002511
:4019C000A54204D056F8253098470135F8E770BDCC1B0000CC1B0000CC1B0000D41B000010B5431E0A44914204D011F8014B03F8014FF8E710BD03460244934202D003F82C
:401A0000011BFAE7704700000000000048656C6C6F20576F726C642000000000004F00400C00205100405000C0510040100000000140001000140140000800400140000A80
:401A4000004C01400002005001402000303132333435363738394142434445460000000001000000681A000001000000AC1B0000000000000000000001000000801A00009E
:401A800001000000681B000003000000AC1A00000000000000000000000000000000000000000000A81A0000020A000000008103080002000100820240000A0001000302A8
:401AC00040000A0002030000040309042C0343007900700072006500730073002000530065006D00690063006F006E0064007500630074006F0072001003550053004200EF
:401B000055004100520054003803430044004300200043006F006D006D0075006E00690063006100740069006F006E00200049006E0074006500720066006100630065003D
:401B4000260343004400430020004400610074006100200049006E007400650072006600610063006500000009024300020101C0320904000001020201030524001001048F
:401B8000240202052406000105240100010705810308000A09040100020A0000040705820240000007050302400000001201000202000008B40432F20100010280014300FE
:401BC000F8B500BFF8BC08BC9E4670474D000000F1030000F8B500BFF8BC08BC9E46704729000000F81B0000C880FF1F98000000F8000000000000000000000000C20100B1
:401C000000000800C201000000080000A120000000000200000000000000307560EA00003C00000000879303000000000000000000000000000000000000000000000000C6
:401C40000000000000000000BE1B0000000000000000000000000000000000000000000000000000000000000000000000000000000000000000000000000000000000008B
:401C80000000000000000000F880FF1F000000000000000000000000000000000000000000000000000000000000000000000000000000000000000000000000000000008E
:401CC00000000000000000000000000000000000000000000000000000000000000000000000000000000000000000000000000000000000000000000000000000000000E4
:401D000000000000000000000000000000000000000000000000000000000000000000000000000000000000000000000000000000000000000000000000000000000000A3
:401D40000000000000000000000000000000000000000000000000000000000000000000000000000000000000000000000000000000000000000000000000000000000063
:401D80000000000000000000000000000000000000000000000000000000000000000000000000000000000000000000000000000000000000000000000000000000000023
:020000040003F7
:0200000480007A
:4000000001450040024F004001520040020301400207014003090140040A0140010B0140020D014001170140011901400640014008410140064201400543014001450140EF
:40004000054601400D47014002480140014C0140025101407E0201800A4B7C40E208E602E810EE0DAF20E810EE05B820BE10D804DF011F20E208E602EA02EA02332134024C
:4000800037403B10CCF0CE108402871097109C029F41A720E210E640110263029F41A720C410D6409F01AB60AF01B501EEB086411A801B049601A640C60809080A010E8096
:4000C000401090109601A640AA40AB04B410C20ED002E808AF01EA40AD0800AF0102000000000000000010004000000000000000C0000000000B0B000000C0000400180160
:4001000000000000000000000000000000000000000000000000000000000000000000000000000000000000000000000000000000000000000000000000000000000000BF
:40014000000000000000000000000000000000000000000000000000000000000000000000000000000000000000000000000000000000000000000000000000000000007F
:40018000000000000000000000000000000000000000000000000000000000000000000000000000000000000000000000000000000000000000000000000000000000003F
:4001C00000000000000000000000000000000000000000000000000000000000000000000000000000000000000000000000000000000000000000000000000000000000FF
:0200000490006A
:0400000000004005B7
:0200000490105A
:04000000BC90ACAF55
:0200000490303A
:02000000487343
:0200000490402A
:4000000000000000000000000000000000000000000000000000000000000000000000000000000000000000000000000000000000000000000000000000000000000000C0
:400040000000000000000000000000000000000000000000000000000000000000000000000000000000000000000000000000000000000000000000000000000000000080
:400080000000000000000000000000000000000000000000000000000000000000000000000000000000000000000000000000000000000000000000000000000000000040
:4000C0000000000000000000000000000000000000000000000000000000000000000000000000000000000000000000000000000000000000000000000000000000000000
:0200000490501A
:0C00000000012E16106900012E2058DCB3
:00000001FF