:400000000080002011000000F1030000F103000008B5044B1A6803F53F5302331A6000F0EFF900BFFA46004010B5054C237833B9044B13B10448AFF300800123237010BDA7
:400040006081FF1F00000000501E0000084B10B51BB108490848AFF300800848036803B910BD074B002BFBD0BDE81040184700BF000000006481FF1F501E0000C880FF1FF6
:400080000000000008B500F0D5FA80B2044B18809A7812F0FF0F0CBF012200229A7008BD7C81FF1F10B5044600F03CFE0028FBD0204600F0E7FD10BD30B583B0002400948C
:4000C0008DF804403F238DF8003010E0C4F1040202AB1A440D4BA3FB0013DB0803EB83056900401A303002F8080C98B2013408B1042CEBD900F016FE0028FBD0C4F10500FA
:40010000A1B2684400F096FD03B030BDCDCCCCCC10B562B600F086FB00F07EFA114801F009FE00F015FB0121002000F085FC0E48FFF7B8FF0020FFF7BFFF0C4B9A78D2B2EE
:400140000A4B9B78DBB29A42FAD0084C208800B200F07CFA2088C0F3471000F0C1FAA278D2B2EDE785000000541E00007C81FF1FFEE700BFF0B40022174611E050F8276068
:40018000F3B226F0FF0608E001EB420511F812406D78A5550132013BDBB2002BF4D10137182FEBD9F0BC704708B50A46002101F046FE08BDF8B5184B1B78DBB2174E34782F
:4001C000E4B2174F3D78EDB203F00701154A11701B090132137044F00303337045F003033B704FF48142104B1A80802203F2ED731A70012203F5C1731A7004229D331A7062
:40020000202203331A700A2001F00CFD3D7034704422064B1A70F8BDCF010049F8460040F94600406E5800401C5100407658004008B501F0F9FD08BD38B500242B4B1C80EE
:40024000192502331D70042229492A48FFF7F0FF0622294B1A705222A3F580731A70274B1B78DBB2264A137040F21472254B1A8041F25122023B1A800CE0234B1B7803F03C
:40028000010343EA440404F003044FF4F07001F05FFD013D0DB1032CEFD115B90320FFF767FF1A4A4FF48073138007231370002317490B704820023108701370053213707A
:4002C0000222144B1A7004220A331A70124A137843F001031370013A137843F001031370013A137843F08003137038BD804000401C01004800410040004300400F0100492D
:40030000A14600402242004025420040044000400640004001400040A243004038B572B6274C61232370FFF787FF01232370254A137843F00403137000240CE0224D630030
:4003400019194A0011462A44084691882858FFF72BFF0134E4B2082CF0D91C494FF09040FFF708FF1A4A137843F0020313701032137843F002031370164C237843F0400357
:400380002370A2F58632513A137843F0100313700A2211491148FFF74BFF082210491148FFF746FF104A137843F008031370FFF701FF0E2221460D48FFF73AFF38BD00BFDB
:4003C00000480040E8460040641E00006400004803500140A043004008010048F0510040140100481251004022430040B043004008B501F0EDFC03680C2B00D1FEE7FEE7A4
:4004000008B5104E104D16E029686B68AC68002204E051F8040B43F8040B0432A242F8D1E868002203E0002143F8041B04328242F9D11035013E002EE6D101F0CFFCFFF79C
:4004400067FEFEE7010000003420000008B5104A104B1A60104A136843F40073136000230AE0032B03D80D4A52F8231000E00C490C4A42F8231001332F2BF2D90A4B1A78DD
:400480000A4B1A70074A0A4B1A60FFF747FF08BD0004FA050CED00E014ED00E000000000F10300000080FF1FBC760040C080FF1F08ED00E008B50A280FD00C2802D0082844
:4004C00006D102E04FF4805209E04FF4807206E0002001F0A5FB002201E04FF480620021084B198042F2107303FB02F313F5806301D503F2FF73DB12034A13600022034B55
:400500001A8008BD8881FF1F8C81FF1F8A81FF1F38B501F025FC04461E4A137843F0020313701032137843F0020313701A3A137843F0010313701032137843F00103137042
:4005400002F5AA521A32137843F0030313701822114B1A70013B1A7842F040021A701A7802F0FC021A70CE22053B1A700225A3F59753123B1D70094A137843F00803137021
:400580000A2001F04FFB064B1D60204601F0ECFB38BD00BFAB4300400E5900402F5B004080E200E010B504460A280DD00C2802D0082804D101E0C22207E0422205E00020F7
:4005C00001F02EFBC22200E08222034B1A702046FFF770FF10BD00BF0A59004008B5102001F00CFB0721012001F03AFB0749012001F022FB064A137843F0060313700C200E
:40060000FFF7D0FF0022034B1A8008BDA5060000095900409081FF1F08B5054B1B7823B9FFF7DCFF0122024B1A70FFF771FF08BD7F81FF1F034B188880B2034B1B88C01A2F
:4006400000B27047A25B00408A81FF1F10B4124B1B881BB233B1104B1B881BB203EB83035C0001E00D4B1C680D4B1988411A09B242F2107303FB01F2002903DD04EBD470EB
:40068000401003E004EBD47040104042831893FBF4F000B210BC70478881FF1F8C81FF1F9081FF1F704700BF054A137843F0020313701032137843F002031370704700BF36
:4006C000A8430040054B1A7802F0FD021A701A7800F0020010431870704700BF24580040014B1870704700BF815B0040064B1B78C3F3810303F19243063393F83031DBB2E2
:40070000024A1370704700BF245800400946004008B5064B1A7802F0F3021A701A7800F00C0010431870FFF7E1FF08BD2458004008B50023054A1370013213700420FFF7D6
:40074000E7FF0220FFF7BEFF08BD00BF2458004008B5074B1B7823B9FFF7EAFF0122044B1A70FFF7A1FF6420FFF7BAFF08BD00BF8081FF1F084A137843F0010313701032E0
:40078000137843F00103137002F64D32137843F001031370704700BFA3430040014B1870704700BF034F0040014B1880704700BF044F0040014B1880704700BF064F0040E4
:4007C00008B5154A137803F0010313700232137803F0FC031370114B1A7802F0CF021A701A7842F030021A701A7802F0F0021A701A7842F00F021A70094A137843F0010375
:400800001370FB20FFF7D0FFFB20FFF7D3FF0020FFF7C4FF08BD00BF004F00400B4F0040014F004008B5054B1B7823B9FFF7C8FF0122024B1A70FFF79DFF08BD8181FF1FB2
:40084000F8B501F08DFA0646404A137843F0010313701032137843F00103137001273C4B1F700225943B1D7002F5E2521B32137803F07F031370002001F0D4F9354C2378FB
:4008800003F0F9032370344A137803F0DF03137023783B432370384601F0C4F9282001F0C1F92E4B1A7802F07F021A701A7802F0BF021A7023782B432370284601F0B2F90D
:4008C000237843F0040323700023254A137001321370304601F048FA0721172001F0C0F92049172001F0A8F90721182001F0B8F91D49182001F0A0F90721152001F0B0F9C0
:400900001A49152001F098F90721284601F0A8F91749284601F090F90721032001F0A0F91449032001F088F90721042001F098F91149042001F080F907210C2001F090F9E2
:400940000E490C2001F078F9F8BD00BFA54300409D6000409443004012600040F851004084600040A51200008D100000A1120000011200003112000065120000AD120000B0
:4009800008B5214B18700023204A1370204A1370204A1370204A1370204A1370204A1370204A1370204B4FF400021A604FF080721A604FF400121A6004221A6008221A6000
:4009C00010221A6011B1012906D00BE0174A137803F0FE0313700AE0144A137843F00103137004E0114A137843F00103137003220F4B1A708022203B1A70012001F0A8F9E7
:400A000004220C4B1A7008BD3F82FF1F3E82FF1FB081FF1FB181FF1FB281FF1F4282FF1FB381FF1FAF81FF1F00E100E009600040286000401260004038B504460D46064BFC
:400A40001B7823B9FFF7FCFE0122034B1A7029462046FFF795FF38BD8281FF1F00230A4A13700A4A13700A4A13700A4A13700A4A13700A4A13700A4A13700322094B1A70A0
:400A80008022203B1A7070473E82FF1FB081FF1FB181FF1FB281FF1F4282FF1FB381FF1FAF81FF1F2860004000EB40008300024A13445878704700BFD081FF1F431EDBB2EC
:400AC000072B3CD8F0B4074600EB4004A3001C4C2344DB889BB2C3F500739A4208D900EB400293002344DA8892B2C2F5007292B200EB4004A300124C2344DB7843EA122300
:400B0000104D04012E192B55D3B2737039B909E0CE5C3D010C4C665501339BB200E000239A42F5D8420002449300054A134400225A705A79D2B20001044B1A54F0BC70477C
:400B4000D081FF1FFC5F004078600040FE5F00400246002001E0013080B2135C002BFAD1704700BF10B4FF2400230EE0094AD25C02EB42029100084A11448A7AD2B2824201
:400B800001D11C4602230133DBB2012BEED9204610BC70479C81FF1FD081FF1F10B5204C2079FFF7DFFF237813F0800F0ED06378DBB2212B2FD11B4B07221A80C0EBC000A4
:400BC000194A1044586000F0CFFA10BD144B5B78DBB2202B02D0222B10D01EE0114A07231380C0EBC00310490B4453600F4A135C43F00103135400F0DFFA10BD084B9B78B6
:400C00000B4A22F81030094A135C43F00203135400F068F910BD002010BD002010BD00BF00600040C081FF1FCC80FF1FA481FF1FA881FF1F70B506460D460F4B1B780F4AF0
:400C4000D45CE4B204EB440293000D4A13441B899BB28B4209D204EB44029300084A13441D89ADB2002000F0DBFF2A4631462046FFF724FF70BD00BF8381FF1F9481FF1F98
:400C8000D081FF1F2DE9F8438046234B1B78234AD65CF6B2FFF75CFF05460027344606EB460293001E4A13441B899BB29D4209D906EB460293001A4A1344B3F808901FFA09
:400CC00089F900E0A9464A4608EB07013046FFF7F5FEC9EB0505ADB245B906EB460293000F4A13441B899BB2994510D14F44BFB204EB440293000A4A13445B7813F0FF0F17
:400D0000F6D025B9002211463046FFF7D7FE002DC4D1BDE8F88300BF8381FF1F9481FF1FD081FF1F08B5034B1B78034AD05CFFF7BBFE08BD8381FF1F9481FF1FC37803F0E2
:400D4000030390F9020000280FDA032B06D002F001030B48C15442F001020EE0C2F380030848C15442F0040207E0032B05D0C2F340030548C15442F002021046704700BF31
:400D80009481FF1F9C81FF1F9881FF1F1D4B19781D4A13889BB20B449BB2138000220FE01A494B681B78DBB2194883544B6801334B600132D2B20B889BB2013B9BB20B805B
:400DC000124B1B889BB20BB1072AE9D90D4B1B78DBB2082B00D05AB10E490B7883F080030B700F210C4B197002210C4B197004E0022309490B7009490B70094B1A70014B46
:400E00001A707047AF81FF1F3C82FF1FC081FF1F00600040B481FF1FAE81FF1F3E82FF1FCC81FF1F0222074B1A708022064B1A700F22064B1A700023054A1370054A13700F
:400E4000012070473E82FF1FB481FF1FAE81FF1FAF81FF1FCC81FF1F08B5FFF797FF08BD10B4194B197801F00F010239C9B2174A13889BB20B449BB21380002011E0144AFE
:400E80005468144B1B5CDBB223705368013353600130C0B20139C9B213889BB2013B9BB213800B4B1B889BB20BB10029E7D10A4B19700A4A137883F0800313700B22084BE9
:400EC0001A7010BC704700BF296000403C82FF1FC081FF1F00600040CC81FF1FB481FF1FAE81FF1F0623064A1370064A13708022054B1A700022054B1A700120704700BF99
:400F00003E82FF1FAE81FF1FB481FF1FCC81FF1F064B9B6843B1054B9A6810709A6804490988518000229A60704700BFC081FF1F3C82FF1F08B5134B1A78D2B21A701B78E2
:400F4000DBB213F0800F02D00F4A137008BD0220FFF7DEFF0D4B1B7803F06003202B05D0402B06D043B900F093FC06E000F000FF03E000F037FE00E0002010B90322024BB5
:400F80001A7008BD28600040AE81FF1F0060004008B5094B1978094A13889BB20B449BB213800022064B1A700120FFF7B1FF0322044B1A7008BD00BFAF81FF1F3C82FF1FB1
:400FC0003E82FF1FAE81FF1F08B50B4B1B78DBB2042B06D0062B07D0022B0BD1FFF7D8FF08BDFFF73DFF08BD0320FFF791FF0322024B1A7008BD00BF3E82FF1FAE81FF1FA0
:4010000008B50022044B1A700120FFF781FF0322024B1A7008BD00BF3E82FF1FAE81FF1F08B50B4B1B7813F0FF0F07D0084A137843F0800307490B70002313700022064BB1
:401040001A700120FFF764FF0322044B1A7008BD4282FF1F086000403E82FF1FAE81FF1F08B5094B1B78DBB2042B06D0062B07D0022B07D1FFF7F0FE08BDFFF7C1FF08BD8D
:40108000FFF7CEFF08BD00BF3E82FF1F08B5284B1B78DBB213F0100F48D013F0800F0CD003F00F03012B16D1FFF744FF214B1B7813F0800F11D1012312E013F0400F03D014
:4010C000FFF7CEFF01230BE013F0200F07D0FFF77BFF012304E0002302E0002300E0002323B3134B1B7813F0800F1FD1124B1B78124A12781343124A13701278D2B293423B
:4011000014D10C4B1B78DBB2094A127812F0800F07D1084B1B78DBB2054A1370137803F00F03044A1278D2B29342EAD108BD00BF28600040AE81FF1FB481FF1FCC81FF1FF5
:40114000296000400022064B1A80064B9B682BB1044A916800230B7092685380704700BF3C82FF1FC081FF1F08B50F4B1B889BB213B9FFF757FE15E002220C4B1A700022CC
:401180000B4B1A70FFF7DEFF0A4AD179937943EA0123054A128892B2934201D2024A1380FFF7F4FD012008BDC081FF1F3E82FF1FB481FF1F0060004008B504220B4B1A700D
:4011C00080220B4B1A70FFF7BDFF0A4AD179937943EA0123084A128892B2934201D2064A13800B22054B1A70012008BD3E82FF1FB481FF1F00600040C081FF1FAE81FF1F9B
:401200000122094B1A700F3B9B7C084B1B7B03F00303934204D0054AD37B83F08003D3730122024B5A7370470B600040D081FF1F02220A4B1A700F3B93F82230084B1B7EC4
:4012400003F00303012B04D0054AD37E83F08003D3760122024B5A76704700BF0B600040D081FF1F04220C4B1A700F3B93F832300A4B93F8243003F00303012B06D0074A08
:4012800092F8273083F0800382F827300122034B83F82520704700BF0B600040D081FF1F704700BF08B5FFF7D9FB08BD08B500F0AFFC08BD70B588B0054603AC174E0FCE4D
:4012C0000FC43368237035B322232B7003236B7001A800F0DDFC002402231AE008AA224412F81C2C08A901EB121111F8141CE954581C00212954981C02F00F0208AE3244DA
:4013000012F8142C2A54DA1CA9540134E4B20433DBB2212BE2D908B070BD00BF9C1E000010B401233EE019461A010C242148845403EB4300820020480244527912F0FF0FD1
:4013400013D003EB430082001B480244127912F0800F04D01801194A024494700AE01801164A02440820907004E01801134A0244802090704800084482000F480244D48858
:40138000E4B208010B4901448C71D088C0F30720C871D088C0B20871D288C2F307224A710133DBB2082BBED9FF22054B1A7010BC704700BF70600040D081FF1FFC5F004075
:4013C0000A600040074B1A78074B03EBC2035B681A7C824204D9C0001030184440687047002070473F82FF1FB01E0000F8B5404B1B7813F0FF0F79D03D4B18780138C0B239
:40140000FFF7E0FF047AC2683A4B1878C0B200236AE01178884264D13749095CC9B25578A9425ED1917801F07F01D67806F00306DFF8C8E04D000D44AF000EEB07054FF095
:40144000000C85F803C092F802C085F804C092F803C00EF807C097882F8192F90250002D0DDA012E01D1072700E00D274E000E44B500224E35446F7101266E700CE0012E38
:4014800001D1052700E009274E000E44B5001B4E35446F7100266E70DFF868E00F010EEB07060125B57001FA05F529448D00134929440D89C5F307250EF807500D89EDB2BF
:4014C0007570CE88F6B20E4D3D44AE71CE88C6F30726EE71CE88F6B22E71C988C1F30721697108320133DBB2A34292D3F8BD00BFB181FF1FB281FF1FBC81FF1FD081FF1FAB
:4015000070600040FC5F0040034B1A78034B03EBC2035868704700BF3F82FF1FB01E000008B5084B18780138C0B2FFF74BFF30B142681279023200EBC203586808BD002012
:4015400008BD00BFB181FF1F2DE9F047002310E0724D5900CA189600AC190022AA55A270E2702281A272627034462C4462710133DBB2082BECD940B90AE000226849CA548A
:401580006849CA540133DBB200E00023012BF4D9654B1B7813F0FF0F00F0BD80624B18780138C0B2FFF70EFF80464368DB7913F0400F05D05D4A137843F00103137004E077
:4015C0005A4A137803F0FE03137098F808704FF0000A01266FE0D8F80C50002467E0AB7803F07F039E425FD1314606EB460083004A4803441B899BB2A888834206D206EB86
:40160000460E4FEA8E03454A134418812B784448C35CDBB26878834246D195F802C0DFF8FCE04B000B4498000EEB000383F804C0EB780EF80030EB7803F0030395F9020082
:40164000002813DA012B02D14FF0070901E04FF00D09DFF8C8E04B0003EB010C4FEA8C00704480F805900121417012E0012B02D14FF0050901E04FF00909DFF8A0E04B00A1
:4016800003EB010C4FEA8C00704480F8059000214170AB790A2B01D0022B05D1524631462846FFF74BFB824608350134E4B2BC4295D30136F6B2082E8DD9D8F80C00002242
:4016C0000CE0837803F07F0310F8084B03EB43039900124B19448C720132D2B2BA42F0D3FFF71EFF124B1860002301210FE00B4D4A00501884002C44E380228992B2134475
:401700009BB203F0010213449BB20131C9B20829EDD9FFF705FEBDE8F08700BFD081FF1FBC81FF1FAC81FF1FB181FF1FB381FF1FB881FF1F08B5154B1B7903F07F035A1E9E
:40174000D2B2072A20D8590019448A0010490A44917841F0010191700021D170517841F002015170127912F0800F05D01B01094A1A448D23937004E01B01064A1A448923AD
:401780009370FFF7AFFB08BD002008BD00600040D081FF1FFC5F0040274B1B7903F07F035A1ED2B2072A44D810B5590019448A0022490A44917801F0FE0191700021D17054
:4017C0001F4C1801215C01F07F012154517801F0FD015170127912F0800F13D003EB43018A0016490A445278D2B2012A04D1224602440C23937019E01B01114A1A440D23F5
:40180000937013E003EB43018A000C490A445278D2B2012A05D11B01094A1A440823937004E01B01064A1A4409239370FFF75AFB10BD0020704700BF00600040D081FF1F6F
:40184000FC5F004010B50E4B1C79E4B20D4B18780138C0B2FFF7B6FD43681B799C4201D9022C0AD8084A135DDBB208490B55044B9B78DBB21355012010BD002010BD00BF50
:4018800000600040B181FF1FBC81FF1FAC81FF1F10B59C4B1B78DBB200219B4A118013F0800F00F0AD80974A5278D2B20A2A00F27481DFE812F06900720172017201720138
:4018C00072010B007201920072019A008D4BDB78DBB2012B09D1FFF717FE42688A4B5A6012221A80FFF740FC10BD864BDB78DBB2022B13D1834B9878FFF764FD002800F07A
:401900004E814268804B5A605A68D1785A68927842EA01221A80FFF727FC10BD794BDB78DBB2032B05D02CE00A7811440133DBB201E000237549734A9278D2B2934203D201
:401940000A7812F0FF0FEFD16E4B9B7813F0FF0F0BD06C4B9B78DBB26D4A127C934204D16C4C2046FFF7A6FC21460B7813F0FF0F00F017810B78644A13805160FFF7F4FB84
:4019800010BD00F0F5F910BD13F0030317D0022B40F009815C490B805A4B1B7903F07F0303EB43039A005C4B1A449278D2B25B4B1A7000225A704B60FFF7D6FB10BD5249A3
:4019C00002230B80564B1A78D2B2544B1A7000225A704B60FFF7C8FB10BD4B4B01221A80504A5A60FFF7C0FB10BD474A01231380444B1B794C490B445360FFF7B5FB10BDA0
:401A0000404A5278013A0A2A00F2CF80DFE812F04C00CD009800CD000B00CD00CD00CD001300CD003000374B9B78DBB23F4A1370FFF758FA10BD334B9B7803F0FF041BB143
:401A4000601EC0B2FFF7BEFC04B110B9002C40F0AE80344B1B78DBB29C4206D0314B1C700120334B1870FFF76FFDFFF73BFA10BDFFF7E8FE002800F09C80224A1379DBB24D
:401A80001279D2B22B490A702B4AD25CD2B22649CB5CDBB29A4204D00122254B1A70FFF7A5FCFFF71FFA10BD03F00303012B17D04BB1022B7FD1134B9B7813F0FF0F7CD14B
:401AC000FFF76AFE10BD0F4B9B78DBB2012B76D1134A137803F0FD031370FFF703FA10BD084B1B79DBB2012B6BD8064B98781B79DBB21249CA5C22EA0002CA54FFF7F2F93D
:401B000010BD00BF00600040C081FF1F181F0000FC1F00004482FF1FD081FF1F8481FF1FB381FF1FB181FF1FBC81FF1F4282FF1FB081FF1FB281FF1FAC81FF1F4082FF1FA8
:401B400003F00303012B17D04BB1022B3BD1224B9B7813F0FF0F38D1FFF7ECFD10BD1E4B9B78DBB2012B32D11C4A137843F002031370FFF7B7F910BD174B1B79DBB2012BD8
:401B800027D8154B98781B79DBB21549CA5C22EA0002CA54FFF7A6F910BD002010BD002010BD002010BD002010BD002010BD002010BD002010BD002010BD002010BD00200E
:401BC00010BD002010BD002010BD002010BD002010BD002010BD00BF00600040B381FF1F4082FF1F044B1B7813F0800F01D0024B5B780020704700BF00600040034B1A786B
:401C000000F0F80010431870704700BF02410040024B1878C0F38010704700BF8F45004001BE704708B5034B1B7A00FB03F000F08FF808BDE880FF1F70B504460E46074B63
:401C40001D681F2802D90020FFF7EAFF04F01F04103455F8240045F8246070BD08ED00E038B504460D46072902D90020FFF7D8FF1F2C02D90020FFF7D3FF04F01F0000F19B
:401C8000604000F564406D01EDB2057038BD00BF134B1B78DBB20360124A127843EA02230360114A127843EA024303600F4A127843EA026303600E4B1B78DBB243600D4A34
:401CC000127843EA022343600B4A127843EA024343600A4A127843EA02634360704700BF0301004904010049EC46004002010049010100490001004905010049060100495B
:401D0000014B1B681864704708ED00E04001C0B2014B1870704700BF00E400E00122014B1A60704700E100E00122014B1A60704780E100E010B50446FFF7F6FF2046FFF773
:401D4000DFFF0720FFF7E2FFFFF7E8FF10BD00BF0230800803D000BF01380046FCD17047EFF3108072B6704780F31088704700BF08B5144B1B7803F00303012B02D0022B2A
:401D800004D00FE00F4B1B79DBB20CE00D4B1B7903F07F0303EB43039A000B4B1A44937ADBB200E00023022B07D8084A1268D35C022B04D1FEF7F2FE08BD002008BD0020C1
:401DC00008BD00BF00600040D081FF1FB881FF1F014B1868704700BF5881FF1F0E4B70B51E460E4C0025E41AA410A54204D056F8253098470135F8E700F00AF9084B094CC0
:401E00001E46E41AA4100025A54204D056F8253098470135F8E770BD1C2000001C2000001C2000002420000010B5431E0A44914204D011F8014B03F8014FF8E710BD034640
:401E40000244934202D003F8011BFAE7704700000000000048656C6C6F20576F726C642000000000004F00400C00005100401000205100405000C0510040100000000140AB
:401E8000001000140140000800400140000A004C014000020050014020000000303132333435363738394142434445460000000001000000B81E000001000000FC1F000055
:401EC000000000000000000001000000D01E000001000000B81F000003000000FC1E00000000000000000000000000000000000000000000F81E0000020A00000000810358
:401F0000080002000100820240000A000100030240000A0002030000040309042C0343007900700072006500730073002000530065006D00690063006F006E006400750080
:401F4000630074006F007200100355005300420055004100520054003803430044004300200043006F006D006D0075006E00690063006100740069006F006E00200049008C
:401F80006E007400650072006600610063006500260343004400430020004400610074006100200049006E007400650072006600610063006500000009024300020101C089
:401FC00032090400000102020103052400100104240202052406000105240100010705810308000A09040100020A00000407058202400000070503024000000012010002E2
:4020000002000008B40432F20100010280014300F8B500BFF8BC08BC9E4670474D0000004D040000F8B500BFF8BC08BC9E4670472900000048200000C880FF1F98000000C7
:4020400008010000000000000000000000C2010000000800C201000000080000A120000000000200000000000000307560EA00003C000000008793030000000000000000B6
:402080000000000000000000000000000000000000000000000000000E200000000000000000000000000000000000000000000000000000000000000000000000000000F2
:4020C000000000000000000000000000000000000000000000000000F880FF1F0000000000000000000000000000000000000000000000000000000000000000000000004A
:40210000000000000000000000000000000000000000000000000000000000000000000000000000000000000000000000000000000000000000000000000000000000009F
:40214000000000000000000000000000000000000000000000000000000000000000000000000000000000000000000000000000000000000000000000000000000000005F
:40218000000000000000000000000000000000000000000000000000000000000000000000000000000000000000000000000000000000000000000000000000000000001F
:4021C00000000000000000000000000000000000000000000000000000000000000000000000000000000000000000000000000000000000000000000000000000000000DF
:020000040003F7
:0200000480007A
:4000000001450040014F004001520040020301400207014002090140040A0140010B0140020D0140011501400217014002190140011B014006400140094101400742014049
:40004000064301400145014002460140094701400548014002490140094C0140014D0140025101407E020A4B7C40E208E602E810EE08AF20E810B820BE10D804DF011F20C9
:40008000E208E602EE08E280EA02E280EA02EE083321340236803B10CCF0CE108402871097109C029F01A680A720E210E640110263029F01A680A720C410D6409F01A68005
:4000C000A720AF01B501EE1086419601A64009080A010E8090109601A640B410C20EE8088B20A680A720AF01EA40AE80EE101C021F80381088019010AD08C601CE08E20145
:40010000AF8000AF010200004000000000000000C0000000000B0B000000C000250018010000000000000000000000000000000000000000000000000000000000000000CA
:40014000000000000000000000000000000000000000000000000000000000000000000000000000000000000000000000000000000000000000000000000000000000007F
:40018000000000000000000000000000000000000000000000000000000000000000000000000000000000000000000000000000000000000000000000000000000000003F
:4001C00000000000000000000000000000000000000000000000000000000000000000000000000000000000000000000000000000000000000000000000000000000000FF
:4002000000000000000000000000000000000000000000000000000000000000000000000000000000000000000000000000000000000000000000000000000000000000BE
:0200000490006A
:0400000000004005B7
:0200000490105A
:04000000BC90ACAF55
:0200000490303A
:02000000F4DD2D
:0200000490402A
:4000000000000000000000000000000000000000000000000000000000000000000000000000000000000000000000000000000000000000000000000000000000000000C0
:400040000000000000000000000000000000000000000000000000000000000000000000000000000000000000000000000000000000000000000000000000000000000080
:400080000000000000000000000000000000000000000000000000000000000000000000000000000000000000000000000000000000000000000000000000000000000040
:4000C0000000000000000000000000000000000000000000000000000000000000000000000000000000000000000000000000000000000000000000000000000000000000
:0200000490501A
:0C00000000012E16106900012E2205469A
:00000001FF